:1001030075D40702010902010C120179E5D56003D8
:100113000201710201197900E94400601B7A009021
:100123000237780275871DE493F2A308B80002052D
:1001330087D9F4DAF27587FF02013EE478FFF6D837
:10014300FD0201477800E84400600A790175871CC5
:10015300E4F309D8FC7802E84400600C7901901DAF
:1001630000E4F0A3D8FCD9FA02016E020171120176
:100173000012017D80FE75D5002275F10175FB59D2
:1001830075F10075F5A075F10143D88043D1801254
:10019300019B1201BD80FE22758F02759500759D2E
:1001A30000758F017590807591807592807593802D
:1001B3007594807595807596802275E6FF75E7FFC7
:1001C30075E8FF75E90175E11722C0E0C0D5C0D617
:1001D300C007C006C0D075D000901D00E0FEA3E0AC
:1001E300FF901D0074012EF0E43FA3F0758F009083
:1001F3001D00E0FEA3E0FFBE0105BF0002800280F8
:1002030005439002801E901D00E0FEA3E0FFBE02A6
:1002130005BF0002800280055390FD8007901D00FA
:10022300E4F0A3F053E1BFD0D0D006D007D0D6D0AE
:04023300D5D0E03210
:00000001FF
